{
  "contractName": "Accounts",
  "abi": [
    {
      "inputs": [
        {
          "internalType": "address[]",
          "name": "_addresses",
          "type": "address[]"
        }
      ],
      "stateMutability": "nonpayable",
      "type": "constructor"
    },
    {
      "inputs": [
        {
          "internalType": "address",
          "name": "_addr",
          "type": "address"
        }
      ],
      "name": "viewAccountRole",
      "outputs": [
        {
          "internalType": "string",
          "name": "",
          "type": "string"
        }
      ],
      "stateMutability": "view",
      "type": "function"
    },
    {
      "inputs": [
        {
          "internalType": "address",
          "name": "_addr",
          "type": "address"
        }
      ],
      "name": "viewAccountName",
      "outputs": [
        {
          "internalType": "string",
          "name": "",
          "type": "string"
        }
      ],
      "stateMutability": "view",
      "type": "function"
    },
    {
      "inputs": [],
      "name": "viewTest",
      "outputs": [
        {
          "internalType": "string",
          "name": "",
          "type": "string"
        }
      ],
      "stateMutability": "pure",
      "type": "function"
    }
  ],
  "bytecode": "0x60806040523480156200001157600080fd5b5060405162000f0238038062000f02833981810160405281019062000037919062000984565b60405180604001604052806040518060400160405280600681526020017f447269766572000000000000000000000000000000000000000000000000000081525081526020016040518060400160405280600981526020017f436f6d70616e792041000000000000000000000000000000000000000000000081525081525060008083600081518110620000d057620000cf620009d5565b5b602002602001015173ffffffffffffffffffffffffffffffffffffffff1673ffffffffffffffffffffffffffffffffffffffff168152602001908152602001600020600082015181600001908051906020019062000130929190620006e6565b5060208201518160010190805190602001906200014f929190620006e6565b5090505060405180604001604052806040518060400160405280601081526020017f506172746e65722f496e766573746f720000000000000000000000000000000081525081526020016040518060400160405280600981526020017f436f6d70616e792042000000000000000000000000000000000000000000000081525081525060008083600181518110620001ec57620001eb620009d5565b5b602002602001015173ffffffffffffffffffffffffffffffffffffffff1673ffffffffffffffffffffffffffffffffffffffff16815260200190815260200160002060008201518160000190805190602001906200024c929190620006e6565b5060208201518160010190805190602001906200026b929190620006e6565b5090505060405180604001604052806040518060400160405280601081526020017f506172746e65722f496e766573746f720000000000000000000000000000000081525081526020016040518060400160405280600981526020017f436f6d70616e792043000000000000000000000000000000000000000000000081525081525060008083600281518110620003085762000307620009d5565b5b602002602001015173ffffffffffffffffffffffffffffffffffffffff1673ffffffffffffffffffffffffffffffffffffffff168152602001908152602001600020600082015181600001908051906020019062000368929190620006e6565b50602082015181600101908051906020019062000387929190620006e6565b5090505060405180604001604052806040518060400160405280600781526020017f506172746e65720000000000000000000000000000000000000000000000000081525081526020016040518060400160405280600981526020017f436f6d70616e792044000000000000000000000000000000000000000000000081525081525060008083600381518110620004245762000423620009d5565b5b602002602001015173ffffffffffffffffffffffffffffffffffffffff1673ffffffffffffffffffffffffffffffffffffffff168152602001908152602001600020600082015181600001908051906020019062000484929190620006e6565b506020820151816001019080519060200190620004a3929190620006e6565b5090505060405180604001604052806040518060400160405280600d81526020017f506c6174666f726d20557365720000000000000000000000000000000000000081525081526020016040518060400160405280600781526020017f56616c65726965000000000000000000000000000000000000000000000000008152508152506000808360048151811062000540576200053f620009d5565b5b602002602001015173ffffffffffffffffffffffffffffffffffffffff1673ffffffffffffffffffffffffffffffffffffffff1681526020019081526020016000206000820151816000019080519060200190620005a0929190620006e6565b506020820151816001019080519060200190620005bf929190620006e6565b5090505060405180604001604052806040518060400160405280600d81526020017f506c6174666f726d20557365720000000000000000000000000000000000000081525081526020016040518060400160405280600881526020017f57656e2051696e67000000000000000000000000000000000000000000000000815250815250600080836005815181106200065c576200065b620009d5565b5b602002602001015173ffffffffffffffffffffffffffffffffffffffff1673ffffffffffffffffffffffffffffffffffffffff1681526020019081526020016000206000820151816000019080519060200190620006bc929190620006e6565b506020820151816001019080519060200190620006db929190620006e6565b509050505062000a69565b828054620006f49062000a33565b90600052602060002090601f01602090048101928262000718576000855562000764565b82601f106200073357805160ff191683800117855562000764565b8280016001018555821562000764579182015b828111156200076357825182559160200191906001019062000746565b5b50905062000773919062000777565b5090565b5b808211156200079257600081600090555060010162000778565b5090565b6000604051905090565b600080fd5b600080fd5b600080fd5b6000601f19601f8301169050919050565b7f4e487b7100000000000000000000000000000000000000000000000000000000600052604160045260246000fd5b620007fa82620007af565b810181811067ffffffffffffffff821117156200081c576200081b620007c0565b5b80604052505050565b60006200083162000796565b90506200083f8282620007ef565b919050565b600067ffffffffffffffff821115620008625762000861620007c0565b5b602082029050602081019050919050565b600080fd5b600073ffffffffffffffffffffffffffffffffffffffff82169050919050565b6000620008a58262000878565b9050919050565b620008b78162000898565b8114620008c357600080fd5b50565b600081519050620008d781620008ac565b92915050565b6000620008f4620008ee8462000844565b62000825565b905080838252602082019050602084028301858111156200091a576200091962000873565b5b835b81811015620009475780620009328882620008c6565b8452602084019350506020810190506200091c565b5050509392505050565b600082601f830112620009695762000968620007aa565b5b81516200097b848260208601620008dd565b91505092915050565b6000602082840312156200099d576200099c620007a0565b5b600082015167ffffffffffffffff811115620009be57620009bd620007a5565b5b620009cc8482850162000951565b91505092915050565b7f4e487b7100000000000000000000000000000000000000000000000000000000600052603260045260246000fd5b7f4e487b7100000000000000000000000000000000000000000000000000000000600052602260045260246000fd5b6000600282049050600182168062000a4c57607f821691505b6020821081141562000a635762000a6262000a04565b5b50919050565b6104898062000a796000396000f3fe608060405234801561001057600080fd5b50600436106100415760003560e01c80630109b8c6146100465780635e2131b0146100765780636c9e7c4314610094575b600080fd5b610060600480360381019061005b919061030a565b6100c4565b60405161006d91906103d0565b60405180910390f35b61007e610197565b60405161008b91906103d0565b60405180910390f35b6100ae60048036038101906100a9919061030a565b6101d4565b6040516100bb91906103d0565b60405180910390f35b60606000808373ffffffffffffffffffffffffffffffffffffffff1673ffffffffffffffffffffffffffffffffffffffff168152602001908152602001600020600101805461011290610421565b80601f016020809104026020016040519081016040528092919081815260200182805461013e90610421565b801561018b5780601f106101605761010080835404028352916020019161018b565b820191906000526020600020905b81548152906001019060200180831161016e57829003601f168201915b50505050509050919050565b60606040518060400160405280600281526020017f6869000000000000000000000000000000000000000000000000000000000000815250905090565b60606000808373ffffffffffffffffffffffffffffffffffffffff1673ffffffffffffffffffffffffffffffffffffffff168152602001908152602001600020600001805461022290610421565b80601f016020809104026020016040519081016040528092919081815260200182805461024e90610421565b801561029b5780601f106102705761010080835404028352916020019161029b565b820191906000526020600020905b81548152906001019060200180831161027e57829003601f168201915b50505050509050919050565b600080fd5b600073ffffffffffffffffffffffffffffffffffffffff82169050919050565b60006102d7826102ac565b9050919050565b6102e7816102cc565b81146102f257600080fd5b50565b600081359050610304816102de565b92915050565b6000602082840312156103205761031f6102a7565b5b600061032e848285016102f5565b91505092915050565b600081519050919050565b600082825260208201905092915050565b60005b83811015610371578082015181840152602081019050610356565b83811115610380576000848401525b50505050565b6000601f19601f8301169050919050565b60006103a282610337565b6103ac8185610342565b93506103bc818560208601610353565b6103c581610386565b840191505092915050565b600060208201905081810360008301526103ea8184610397565b905092915050565b7f4e487b7100000000000000000000000000000000000000000000000000000000600052602260045260246000fd5b6000600282049050600182168061043957607f821691505b6020821081141561044d5761044c6103f2565b5b5091905056fea26469706673582212202ecf63e73f372afcc6fd8edaa19fc895d7308761e3a606022bcaa88f5a5f696064736f6c63430008090033",
  "immutableReferences": {},
  "source": "pragma solidity ^0.8.0;\r\n\r\ncontract Accounts {\r\n    // mapping of address => struct\r\n    struct Account {\r\n        string role;\r\n        string companyName;\r\n    }\r\n\r\n    mapping(address => Account) accounts;\r\n\r\n    // when view info about the address, pass the address as parameter\r\n    constructor(address[] memory _addresses) {\r\n        // hardcode\r\n        accounts[_addresses[0]] = Account(\"Driver\", \"Company A\");\r\n        accounts[_addresses[1]] = Account(\"Partner/Investor\", \"Company B\");\r\n        accounts[_addresses[2]] = Account(\"Partner/Investor\", \"Company C\");\r\n        accounts[_addresses[3]] = Account(\"Partner\", \"Company D\");\r\n        accounts[_addresses[4]] = Account(\"Platform User\", \"Valerie\");\r\n        accounts[_addresses[5]] = Account(\"Platform User\", \"Wen Qing\");\r\n    }\r\n\r\n    function viewAccountRole(address _addr)\r\n        public\r\n        view\r\n        returns (string memory)\r\n    {\r\n        return accounts[_addr].role;\r\n    }\r\n\r\n    function viewAccountName(address _addr)\r\n        public\r\n        view\r\n        returns (string memory)\r\n    {\r\n        return accounts[_addr].companyName;\r\n    }\r\n\r\n    function viewTest() public pure returns (string memory) {\r\n        return \"hi\";\r\n    }\r\n}\r\n",
  "sourcePath": "C:\\Users\\NTU user\\Desktop\\project\\Blockchain\\CZ4153_DevProj\\contracts\\Accounts.sol",
  "compiler": {
    "name": "solc",
    "version": "0.8.9+commit.e5eed63a.Emscripten.clang"
  },
  "schemaVersion": "3.4.3",
  "updatedAt": "2021-11-17T03:38:39.164Z",
  "devdoc": {
    "kind": "dev",
    "methods": {},
    "version": 1
  },
  "userdoc": {
    "kind": "user",
    "methods": {},
    "version": 1
  }
}