{
  "contractName": "DGT",
  "abi": [
    {
      "inputs": [
        {
          "internalType": "uint256",
          "name": "initialSupply",
          "type": "uint256"
        },
        {
          "internalType": "address[]",
          "name": "_addr",
          "type": "address[]"
        }
      ],
      "stateMutability": "nonpayable",
      "type": "constructor"
    },
    {
      "anonymous": false,
      "inputs": [
        {
          "indexed": true,
          "internalType": "address",
          "name": "owner",
          "type": "address"
        },
        {
          "indexed": true,
          "internalType": "address",
          "name": "spender",
          "type": "address"
        },
        {
          "indexed": false,
          "internalType": "uint256",
          "name": "value",
          "type": "uint256"
        }
      ],
      "name": "Approval",
      "type": "event"
    },
    {
      "anonymous": false,
      "inputs": [
        {
          "indexed": true,
          "internalType": "address",
          "name": "from",
          "type": "address"
        },
        {
          "indexed": true,
          "internalType": "address",
          "name": "to",
          "type": "address"
        },
        {
          "indexed": false,
          "internalType": "uint256",
          "name": "value",
          "type": "uint256"
        }
      ],
      "name": "Transfer",
      "type": "event"
    },
    {
      "inputs": [
        {
          "internalType": "address",
          "name": "owner",
          "type": "address"
        },
        {
          "internalType": "address",
          "name": "spender",
          "type": "address"
        }
      ],
      "name": "allowance",
      "outputs": [
        {
          "internalType": "uint256",
          "name": "",
          "type": "uint256"
        }
      ],
      "stateMutability": "view",
      "type": "function",
      "constant": true
    },
    {
      "inputs": [
        {
          "internalType": "address",
          "name": "spender",
          "type": "address"
        },
        {
          "internalType": "uint256",
          "name": "amount",
          "type": "uint256"
        }
      ],
      "name": "approve",
      "outputs": [
        {
          "internalType": "bool",
          "name": "",
          "type": "bool"
        }
      ],
      "stateMutability": "nonpayable",
      "type": "function"
    },
    {
      "inputs": [
        {
          "internalType": "address",
          "name": "account",
          "type": "address"
        }
      ],
      "name": "balanceOf",
      "outputs": [
        {
          "internalType": "uint256",
          "name": "",
          "type": "uint256"
        }
      ],
      "stateMutability": "view",
      "type": "function",
      "constant": true
    },
    {
      "inputs": [],
      "name": "decimals",
      "outputs": [
        {
          "internalType": "uint8",
          "name": "",
          "type": "uint8"
        }
      ],
      "stateMutability": "view",
      "type": "function",
      "constant": true
    },
    {
      "inputs": [
        {
          "internalType": "address",
          "name": "spender",
          "type": "address"
        },
        {
          "internalType": "uint256",
          "name": "subtractedValue",
          "type": "uint256"
        }
      ],
      "name": "decreaseAllowance",
      "outputs": [
        {
          "internalType": "bool",
          "name": "",
          "type": "bool"
        }
      ],
      "stateMutability": "nonpayable",
      "type": "function"
    },
    {
      "inputs": [
        {
          "internalType": "address",
          "name": "spender",
          "type": "address"
        },
        {
          "internalType": "uint256",
          "name": "addedValue",
          "type": "uint256"
        }
      ],
      "name": "increaseAllowance",
      "outputs": [
        {
          "internalType": "bool",
          "name": "",
          "type": "bool"
        }
      ],
      "stateMutability": "nonpayable",
      "type": "function"
    },
    {
      "inputs": [],
      "name": "name",
      "outputs": [
        {
          "internalType": "string",
          "name": "",
          "type": "string"
        }
      ],
      "stateMutability": "view",
      "type": "function",
      "constant": true
    },
    {
      "inputs": [],
      "name": "symbol",
      "outputs": [
        {
          "internalType": "string",
          "name": "",
          "type": "string"
        }
      ],
      "stateMutability": "view",
      "type": "function",
      "constant": true
    },
    {
      "inputs": [],
      "name": "totalSupply",
      "outputs": [
        {
          "internalType": "uint256",
          "name": "",
          "type": "uint256"
        }
      ],
      "stateMutability": "view",
      "type": "function",
      "constant": true
    },
    {
      "inputs": [
        {
          "internalType": "address",
          "name": "recipient",
          "type": "address"
        },
        {
          "internalType": "uint256",
          "name": "amount",
          "type": "uint256"
        }
      ],
      "name": "transfer",
      "outputs": [
        {
          "internalType": "bool",
          "name": "",
          "type": "bool"
        }
      ],
      "stateMutability": "nonpayable",
      "type": "function"
    },
    {
      "inputs": [
        {
          "internalType": "address",
          "name": "sender",
          "type": "address"
        },
        {
          "internalType": "address",
          "name": "recipient",
          "type": "address"
        },
        {
          "internalType": "uint256",
          "name": "amount",
          "type": "uint256"
        }
      ],
      "name": "transferFrom",
      "outputs": [
        {
          "internalType": "bool",
          "name": "",
          "type": "bool"
        }
      ],
      "stateMutability": "nonpayable",
      "type": "function"
    },
    {
      "inputs": [
        {
          "internalType": "uint256",
          "name": "_amount",
          "type": "uint256"
        },
        {
          "internalType": "address",
          "name": "_addr",
          "type": "address"
        }
      ],
      "name": "mintTokens",
      "outputs": [],
      "stateMutability": "nonpayable",
      "type": "function"
    }
  ],
  "bytecode": "0x60806040523480156200001157600080fd5b506040516200231f3803806200231f833981810160405281019062000037919062000925565b6040518060400160405280601881526020017f4461696d6c657220476f7665726e616e636520546f6b656e00000000000000008152506040518060400160405280600381526020017f44475400000000000000000000000000000000000000000000000000000000008152508160039080519060200190620000bb9291906200064c565b508060049080519060200190620000d49291906200064c565b505050620000e93383620001f560201b60201c565b6200011c816001815181106200010457620001036200098b565b5b6020026020010151621e84806200036e60201b60201c565b5062000150816002815181106200013857620001376200098b565b5b6020026020010151621e84806200036e60201b60201c565b5062000184816003815181106200016c576200016b6200098b565b5b6020026020010151620f42406200036e60201b60201c565b50620001b881600481518110620001a0576200019f6200098b565b5b6020026020010151620f42406200036e60201b60201c565b50620001ec81600581518110620001d457620001d36200098b565b5b6020026020010151620f42406200036e60201b60201c565b50505062000d24565b600073ffffffffffffffffffffffffffffffffffffffff168273ffffffffffffffffffffffffffffffffffffffff16141562000268576040517f08c379a00000000000000000000000000000000000000000000000000000000081526004016200025f9062000a1b565b60405180910390fd5b6200027c600083836200039c60201b60201c565b806002600082825462000290919062000a6c565b92505081905550806000808473ffffffffffffffffffffffffffffffffffffffff1673ffffffffffffffffffffffffffffffffffffffff1681526020019081526020016000206000828254620002e7919062000a6c565b925050819055508173ffffffffffffffffffffffffffffffffffffffff16600073ffffffffffffffffffffffffffffffffffffffff167fddf252ad1be2c89b69c2b068fc378daa952ba7f163c4a11628f55a4df523b3ef836040516200034e919062000ada565b60405180910390a36200036a60008383620003a160201b60201c565b5050565b60006200039262000384620003a660201b60201c565b8484620003ae60201b60201c565b6001905092915050565b505050565b505050565b600033905090565b600073ffffffffffffffffffffffffffffffffffffffff168373ffffffffffffffffffffffffffffffffffffffff16141562000421576040517f08c379a0000000000000000000000000000000000000000000000000000000008152600401620004189062000b6d565b60405180910390fd5b600073ffffffffffffffffffffffffffffffffffffffff168273ffffffffffffffffffffffffffffffffffffffff16141562000494576040517f08c379a00000000000000000000000000000000000000000000000000000000081526004016200048b9062000c05565b60405180910390fd5b620004a78383836200039c60201b60201c565b60008060008573ffffffffffffffffffffffffffffffffffffffff1673ffffffffffffffffffffffffffffffffffffffff1681526020019081526020016000205490508181101562000530576040517f08c379a0000000000000000000000000000000000000000000000000000000008152600401620005279062000c9d565b60405180910390fd5b8181036000808673ffffffffffffffffffffffffffffffffffffffff1673ffffffffffffffffffffffffffffffffffffffff16815260200190815260200160002081905550816000808573ffffffffffffffffffffffffffffffffffffffff1673ffffffffffffffffffffffffffffffffffffffff1681526020019081526020016000206000828254620005c5919062000a6c565b925050819055508273ffffffffffffffffffffffffffffffffffffffff168473ffffffffffffffffffffffffffffffffffffffff167fddf252ad1be2c89b69c2b068fc378daa952ba7f163c4a11628f55a4df523b3ef846040516200062b919062000ada565b60405180910390a362000646848484620003a160201b60201c565b50505050565b8280546200065a9062000cee565b90600052602060002090601f0160209004810192826200067e5760008555620006ca565b82601f106200069957805160ff1916838001178555620006ca565b82800160010185558215620006ca579182015b82811115620006c9578251825591602001919060010190620006ac565b5b509050620006d99190620006dd565b5090565b5b80821115620006f8576000816000905550600101620006de565b5090565b6000604051905090565b600080fd5b600080fd5b6000819050919050565b620007258162000710565b81146200073157600080fd5b50565b60008151905062000745816200071a565b92915050565b600080fd5b6000601f19601f8301169050919050565b7f4e487b7100000000000000000000000000000000000000000000000000000000600052604160045260246000fd5b6200079b8262000750565b810181811067ffffffffffffffff82111715620007bd57620007bc62000761565b5b80604052505050565b6000620007d2620006fc565b9050620007e0828262000790565b919050565b600067ffffffffffffffff82111562000803576200080262000761565b5b602082029050602081019050919050565b600080fd5b600073ffffffffffffffffffffffffffffffffffffffff82169050919050565b6000620008468262000819565b9050919050565b620008588162000839565b81146200086457600080fd5b50565b60008151905062000878816200084d565b92915050565b6000620008956200088f84620007e5565b620007c6565b90508083825260208201905060208402830185811115620008bb57620008ba62000814565b5b835b81811015620008e85780620008d3888262000867565b845260208401935050602081019050620008bd565b5050509392505050565b600082601f8301126200090a57620009096200074b565b5b81516200091c8482602086016200087e565b91505092915050565b600080604083850312156200093f576200093e62000706565b5b60006200094f8582860162000734565b925050602083015167ffffffffffffffff8111156200097357620009726200070b565b5b6200098185828601620008f2565b9150509250929050565b7f4e487b7100000000000000000000000000000000000000000000000000000000600052603260045260246000fd5b600082825260208201905092915050565b7f45524332303a206d696e7420746f20746865207a65726f206164647265737300600082015250565b600062000a03601f83620009ba565b915062000a1082620009cb565b602082019050919050565b6000602082019050818103600083015262000a3681620009f4565b9050919050565b7f4e487b7100000000000000000000000000000000000000000000000000000000600052601160045260246000fd5b600062000a798262000710565b915062000a868362000710565b9250827fffffffffffffffffffffffffffffffffffffffffffffffffffffffffffffffff0382111562000abe5762000abd62000a3d565b5b828201905092915050565b62000ad48162000710565b82525050565b600060208201905062000af1600083018462000ac9565b92915050565b7f45524332303a207472616e736665722066726f6d20746865207a65726f20616460008201527f6472657373000000000000000000000000000000000000000000000000000000602082015250565b600062000b55602583620009ba565b915062000b628262000af7565b604082019050919050565b6000602082019050818103600083015262000b888162000b46565b9050919050565b7f45524332303a207472616e7366657220746f20746865207a65726f206164647260008201527f6573730000000000000000000000000000000000000000000000000000000000602082015250565b600062000bed602383620009ba565b915062000bfa8262000b8f565b604082019050919050565b6000602082019050818103600083015262000c208162000bde565b9050919050565b7f45524332303a207472616e7366657220616d6f756e742065786365656473206260008201527f616c616e63650000000000000000000000000000000000000000000000000000602082015250565b600062000c85602683620009ba565b915062000c928262000c27565b604082019050919050565b6000602082019050818103600083015262000cb88162000c76565b9050919050565b7f4e487b7100000000000000000000000000000000000000000000000000000000600052602260045260246000fd5b6000600282049050600182168062000d0757607f821691505b6020821081141562000d1e5762000d1d62000cbf565b5b50919050565b6115eb8062000d346000396000f3fe608060405234801561001057600080fd5b50600436106100b45760003560e01c80633950935111610071578063395093511461018f57806370a08231146101bf57806395d89b41146101ef578063a457c2d71461020d578063a9059cbb1461023d578063dd62ed3e1461026d576100b4565b806306fdde03146100b9578063095ea7b3146100d757806310c5b3281461010757806318160ddd1461012357806323b872dd14610141578063313ce56714610171575b600080fd5b6100c161029d565b6040516100ce9190610dd3565b60405180910390f35b6100f160048036038101906100ec9190610e8e565b61032f565b6040516100fe9190610ee9565b60405180910390f35b610121600480360381019061011c9190610f04565b61034d565b005b61012b61035b565b6040516101389190610f53565b60405180910390f35b61015b60048036038101906101569190610f6e565b610365565b6040516101689190610ee9565b60405180910390f35b61017961045d565b6040516101869190610fdd565b60405180910390f35b6101a960048036038101906101a49190610e8e565b610466565b6040516101b69190610ee9565b60405180910390f35b6101d960048036038101906101d49190610ff8565b610512565b6040516101e69190610f53565b60405180910390f35b6101f761055a565b6040516102049190610dd3565b60405180910390f35b61022760048036038101906102229190610e8e565b6105ec565b6040516102349190610ee9565b60405180910390f35b61025760048036038101906102529190610e8e565b6106d7565b6040516102649190610ee9565b60405180910390f35b61028760048036038101906102829190611025565b6106f5565b6040516102949190610f53565b60405180910390f35b6060600380546102ac90611094565b80601f01602080910402602001604051908101604052809291908181526020018280546102d890611094565b80156103255780601f106102fa57610100808354040283529160200191610325565b820191906000526020600020905b81548152906001019060200180831161030857829003601f168201915b5050505050905090565b600061034361033c61077c565b8484610784565b6001905092915050565b610357338361094f565b5050565b6000600254905090565b6000610372848484610aaf565b6000600160008673ffffffffffffffffffffffffffffffffffffffff1673ffffffffffffffffffffffffffffffffffffffff16815260200190815260200160002060006103bd61077c565b73ffffffffffffffffffffffffffffffffffffffff1673ffffffffffffffffffffffffffffffffffffffff1681526020019081526020016000205490508281101561043d576040517f08c379a000000000000000000000000000000000000000000000000000000000815260040161043490611138565b60405180910390fd5b6104518561044961077c565b858403610784565b60019150509392505050565b60006012905090565b600061050861047361077c565b84846001600061048161077c565b73ffffffffffffffffffffffffffffffffffffffff1673ffffffffffffffffffffffffffffffffffffffff16815260200190815260200160002060008873ffffffffffffffffffffffffffffffffffffffff1673ffffffffffffffffffffffffffffffffffffffff168152602001908152602001600020546105039190611187565b610784565b6001905092915050565b60008060008373ffffffffffffffffffffffffffffffffffffffff1673ffffffffffffffffffffffffffffffffffffffff168152602001908152602001600020549050919050565b60606004805461056990611094565b80601f016020809104026020016040519081016040528092919081815260200182805461059590611094565b80156105e25780601f106105b7576101008083540402835291602001916105e2565b820191906000526020600020905b8154815290600101906020018083116105c557829003601f168201915b5050505050905090565b600080600160006105fb61077c565b73ffffffffffffffffffffffffffffffffffffffff1673ffffffffffffffffffffffffffffffffffffffff16815260200190815260200160002060008573ffffffffffffffffffffffffffffffffffffffff1673ffffffffffffffffffffffffffffffffffffffff168152602001908152602001600020549050828110156106b8576040517f08c379a00000000000000000000000000000000000000000000000000000000081526004016106af9061124f565b60405180910390fd5b6106cc6106c361077c565b85858403610784565b600191505092915050565b60006106eb6106e461077c565b8484610aaf565b6001905092915050565b6000600160008473ffffffffffffffffffffffffffffffffffffffff1673ffffffffffffffffffffffffffffffffffffffff16815260200190815260200160002060008373ffffffffffffffffffffffffffffffffffffffff1673ffffffffffffffffffffffffffffffffffffffff16815260200190815260200160002054905092915050565b600033905090565b600073ffffffffffffffffffffffffffffffffffffffff168373ffffffffffffffffffffffffffffffffffffffff1614156107f4576040517f08c379a00000000000000000000000000000000000000000000000000000000081526004016107eb906112e1565b60405180910390fd5b600073ffffffffffffffffffffffffffffffffffffffff168273ffffffffffffffffffffffffffffffffffffffff161415610864576040517f08c379a000000000000000000000000000000000000000000000000000000000815260040161085b90611373565b60405180910390fd5b80600160008573ffffffffffffffffffffffffffffffffffffffff1673ffffffffffffffffffffffffffffffffffffffff16815260200190815260200160002060008473ffffffffffffffffffffffffffffffffffffffff1673ffffffffffffffffffffffffffffffffffffffff168152602001908152602001600020819055508173ffffffffffffffffffffffffffffffffffffffff168373ffffffffffffffffffffffffffffffffffffffff167f8c5be1e5ebec7d5bd14f71427d1e84f3dd0314c0f7b2291e5b200ac8c7c3b925836040516109429190610f53565b60405180910390a3505050565b600073ffffffffffffffffffffffffffffffffffffffff168273ffffffffffffffffffffffffffffffffffffffff1614156109bf576040517f08c379a00000000000000000000000000000000000000000000000000000000081526004016109b6906113df565b60405180910390fd5b6109cb60008383610d30565b80600260008282546109dd9190611187565b92505081905550806000808473ffffffffffffffffffffffffffffffffffffffff1673ffffffffffffffffffffffffffffffffffffffff1681526020019081526020016000206000828254610a329190611187565b925050819055508173ffffffffffffffffffffffffffffffffffffffff16600073ffffffffffffffffffffffffffffffffffffffff167fddf252ad1be2c89b69c2b068fc378daa952ba7f163c4a11628f55a4df523b3ef83604051610a979190610f53565b60405180910390a3610aab60008383610d35565b5050565b600073ffffffffffffffffffffffffffffffffffffffff168373ffffffffffffffffffffffffffffffffffffffff161415610b1f576040517f08c379a0000000000000000000000000000000000000000000000000000000008152600401610b1690611471565b60405180910390fd5b600073ffffffffffffffffffffffffffffffffffffffff168273ffffffffffffffffffffffffffffffffffffffff161415610b8f576040517f08c379a0000000000000000000000000000000000000000000000000000000008152600401610b8690611503565b60405180910390fd5b610b9a838383610d30565b60008060008573ffffffffffffffffffffffffffffffffffffffff1673ffffffffffffffffffffffffffffffffffffffff16815260200190815260200160002054905081811015610c20576040517f08c379a0000000000000000000000000000000000000000000000000000000008152600401610c1790611595565b60405180910390fd5b8181036000808673ffffffffffffffffffffffffffffffffffffffff1673ffffffffffffffffffffffffffffffffffffffff16815260200190815260200160002081905550816000808573ffffffffffffffffffffffffffffffffffffffff1673ffffffffffffffffffffffffffffffffffffffff1681526020019081526020016000206000828254610cb39190611187565b925050819055508273ffffffffffffffffffffffffffffffffffffffff168473ffffffffffffffffffffffffffffffffffffffff167fddf252ad1be2c89b69c2b068fc378daa952ba7f163c4a11628f55a4df523b3ef84604051610d179190610f53565b60405180910390a3610d2a848484610d35565b50505050565b505050565b505050565b600081519050919050565b600082825260208201905092915050565b60005b83811015610d74578082015181840152602081019050610d59565b83811115610d83576000848401525b50505050565b6000601f19601f8301169050919050565b6000610da582610d3a565b610daf8185610d45565b9350610dbf818560208601610d56565b610dc881610d89565b840191505092915050565b60006020820190508181036000830152610ded8184610d9a565b905092915050565b600080fd5b600073ffffffffffffffffffffffffffffffffffffffff82169050919050565b6000610e2582610dfa565b9050919050565b610e3581610e1a565b8114610e4057600080fd5b50565b600081359050610e5281610e2c565b92915050565b6000819050919050565b610e6b81610e58565b8114610e7657600080fd5b50565b600081359050610e8881610e62565b92915050565b60008060408385031215610ea557610ea4610df5565b5b6000610eb385828601610e43565b9250506020610ec485828601610e79565b9150509250929050565b60008115159050919050565b610ee381610ece565b82525050565b6000602082019050610efe6000830184610eda565b92915050565b60008060408385031215610f1b57610f1a610df5565b5b6000610f2985828601610e79565b9250506020610f3a85828601610e43565b9150509250929050565b610f4d81610e58565b82525050565b6000602082019050610f686000830184610f44565b92915050565b600080600060608486031215610f8757610f86610df5565b5b6000610f9586828701610e43565b9350506020610fa686828701610e43565b9250506040610fb786828701610e79565b9150509250925092565b600060ff82169050919050565b610fd781610fc1565b82525050565b6000602082019050610ff26000830184610fce565b92915050565b60006020828403121561100e5761100d610df5565b5b600061101c84828501610e43565b91505092915050565b6000806040838503121561103c5761103b610df5565b5b600061104a85828601610e43565b925050602061105b85828601610e43565b9150509250929050565b7f4e487b7100000000000000000000000000000000000000000000000000000000600052602260045260246000fd5b600060028204905060018216806110ac57607f821691505b602082108114156110c0576110bf611065565b5b50919050565b7f45524332303a207472616e7366657220616d6f756e742065786365656473206160008201527f6c6c6f77616e6365000000000000000000000000000000000000000000000000602082015250565b6000611122602883610d45565b915061112d826110c6565b604082019050919050565b6000602082019050818103600083015261115181611115565b9050919050565b7f4e487b7100000000000000000000000000000000000000000000000000000000600052601160045260246000fd5b600061119282610e58565b915061119d83610e58565b9250827fffffffffffffffffffffffffffffffffffffffffffffffffffffffffffffffff038211156111d2576111d1611158565b5b828201905092915050565b7f45524332303a2064656372656173656420616c6c6f77616e63652062656c6f7760008201527f207a65726f000000000000000000000000000000000000000000000000000000602082015250565b6000611239602583610d45565b9150611244826111dd565b604082019050919050565b600060208201905081810360008301526112688161122c565b9050919050565b7f45524332303a20617070726f76652066726f6d20746865207a65726f2061646460008201527f7265737300000000000000000000000000000000000000000000000000000000602082015250565b60006112cb602483610d45565b91506112d68261126f565b604082019050919050565b600060208201905081810360008301526112fa816112be565b9050919050565b7f45524332303a20617070726f766520746f20746865207a65726f20616464726560008201527f7373000000000000000000000000000000000000000000000000000000000000602082015250565b600061135d602283610d45565b915061136882611301565b604082019050919050565b6000602082019050818103600083015261138c81611350565b9050919050565b7f45524332303a206d696e7420746f20746865207a65726f206164647265737300600082015250565b60006113c9601f83610d45565b91506113d482611393565b602082019050919050565b600060208201905081810360008301526113f8816113bc565b9050919050565b7f45524332303a207472616e736665722066726f6d20746865207a65726f20616460008201527f6472657373000000000000000000000000000000000000000000000000000000602082015250565b600061145b602583610d45565b9150611466826113ff565b604082019050919050565b6000602082019050818103600083015261148a8161144e565b9050919050565b7f45524332303a207472616e7366657220746f20746865207a65726f206164647260008201527f6573730000000000000000000000000000000000000000000000000000000000602082015250565b60006114ed602383610d45565b91506114f882611491565b604082019050919050565b6000602082019050818103600083015261151c816114e0565b9050919050565b7f45524332303a207472616e7366657220616d6f756e742065786365656473206260008201527f616c616e63650000000000000000000000000000000000000000000000000000602082015250565b600061157f602683610d45565b915061158a82611523565b604082019050919050565b600060208201905081810360008301526115ae81611572565b905091905056fea2646970667358221220792b9e0a0884f177ae7a624098265343d189e57792493bf9c4ec79670af7321e64736f6c63430008090033",
  "immutableReferences": {},
  "source": "pragma solidity ^0.8.0;\r\n\r\nimport \"@openzeppelin/contracts/token/ERC20/ERC20.sol\";\r\ncontract DGT is ERC20 {\r\n\r\n    // address poolAddress;\r\n    constructor(uint256 initialSupply, address[] memory _addr) ERC20(\"Daimler Governance Token\", \"DGT\") public {\r\n        _mint(msg.sender, initialSupply); // Company A\r\n        transfer(_addr[1], 2000000 ); // Company B\r\n        transfer(_addr[2], 2000000 ); // Company C\r\n        transfer(_addr[3], 1000000); // Company D\r\n        transfer(_addr[4], 1000000 ); // Platform User #1\r\n        transfer(_addr[5], 1000000 ); // Platform User #2\r\n\r\n        // testing~\r\n        // poolAddress = _poolAddress;\r\n        // transfer(poolAddress, 1000000 * (10 ** decimals()));\r\n    }\r\n\r\n\r\n    // function to mint Tokens and put in the pool\r\n    function mintTokens(uint256 _amount, address _addr) public {\r\n        // require(msg.sender == poolAddress, \"Only PoolContract can call this function\");\r\n        _mint(msg.sender, _amount);\r\n    }\r\n}\r\n",
  "sourcePath": "C:\\Users\\NTU user\\Desktop\\project\\Blockchain\\CZ4153_DevProj\\contracts\\DGT.sol",
  "compiler": {
    "name": "solc",
    "version": "0.8.9+commit.e5eed63a.Emscripten.clang"
  },
  "schemaVersion": "3.4.3",
  "updatedAt": "2021-11-24T07:41:10.361Z",
  "networkType": "ethereum",
  "devdoc": {
    "kind": "dev",
    "methods": {
      "allowance(address,address)": {
        "details": "See {IERC20-allowance}."
      },
      "approve(address,uint256)": {
        "details": "See {IERC20-approve}. Requirements: - `spender` cannot be the zero address."
      },
      "balanceOf(address)": {
        "details": "See {IERC20-balanceOf}."
      },
      "decimals()": {
        "details": "Returns the number of decimals used to get its user representation. For example, if `decimals` equals `2`, a balance of `505` tokens should be displayed to a user as `5.05` (`505 / 10 ** 2`). Tokens usually opt for a value of 18, imitating the relationship between Ether and Wei. This is the value {ERC20} uses, unless this function is overridden; NOTE: This information is only used for _display_ purposes: it in no way affects any of the arithmetic of the contract, including {IERC20-balanceOf} and {IERC20-transfer}."
      },
      "decreaseAllowance(address,uint256)": {
        "details": "Atomically decreases the allowance granted to `spender` by the caller. This is an alternative to {approve} that can be used as a mitigation for problems described in {IERC20-approve}. Emits an {Approval} event indicating the updated allowance. Requirements: - `spender` cannot be the zero address. - `spender` must have allowance for the caller of at least `subtractedValue`."
      },
      "increaseAllowance(address,uint256)": {
        "details": "Atomically increases the allowance granted to `spender` by the caller. This is an alternative to {approve} that can be used as a mitigation for problems described in {IERC20-approve}. Emits an {Approval} event indicating the updated allowance. Requirements: - `spender` cannot be the zero address."
      },
      "name()": {
        "details": "Returns the name of the token."
      },
      "symbol()": {
        "details": "Returns the symbol of the token, usually a shorter version of the name."
      },
      "totalSupply()": {
        "details": "See {IERC20-totalSupply}."
      },
      "transfer(address,uint256)": {
        "details": "See {IERC20-transfer}. Requirements: - `recipient` cannot be the zero address. - the caller must have a balance of at least `amount`."
      },
      "transferFrom(address,address,uint256)": {
        "details": "See {IERC20-transferFrom}. Emits an {Approval} event indicating the updated allowance. This is not required by the EIP. See the note at the beginning of {ERC20}. Requirements: - `sender` and `recipient` cannot be the zero address. - `sender` must have a balance of at least `amount`. - the caller must have allowance for ``sender``'s tokens of at least `amount`."
      }
    },
    "version": 1
  },
  "userdoc": {
    "kind": "user",
    "methods": {},
    "version": 1
  }
}